{
  "contractName": "Foo",
  "abi": [
    {
      "constant": true,
      "inputs": [],
      "name": "x",
      "outputs": [
        {
          "name": "",
          "type": "uint256"
        }
      ],
      "payable": false,
      "stateMutability": "view",
      "type": "function",
      "signature": "0x0c55699c"
    },
    {
      "inputs": [
        {
          "name": "_x",
          "type": "uint256"
        }
      ],
      "payable": false,
      "stateMutability": "nonpayable",
      "type": "constructor",
      "signature": "constructor"
    },
    {
      "anonymous": false,
      "inputs": [
        {
          "indexed": false,
          "name": "newX",
          "type": "uint256"
        }
      ],
      "name": "NewX",
      "type": "event",
      "signature": "0x5ee7539fbb38ebe5783b7feb7c93f87d90b53ad26880d40d285840762f3d8a68"
    },
    {
      "constant": false,
      "inputs": [
        {
          "name": "_x",
          "type": "uint256"
        }
      ],
      "name": "setX",
      "outputs": [
        {
          "name": "",
          "type": "bool"
        }
      ],
      "payable": false,
      "stateMutability": "nonpayable",
      "type": "function",
      "signature": "0x4018d9aa"
    }
  ],
  "bytecode": "0x608060405234801561001057600080fd5b506040516020806101b98339810180604052602081101561003057600080fd5b8101908080519060200190929190505050806000819055507f5ee7539fbb38ebe5783b7feb7c93f87d90b53ad26880d40d285840762f3d8a68816040518082815260200191505060405180910390a15061012a8061008f6000396000f3fe6080604052348015600f57600080fd5b5060043610604f576000357c0100000000000000000000000000000000000000000000000000000000900480630c55699c1460545780634018d9aa146070575b600080fd5b605a60b3565b6040518082815260200191505060405180910390f35b609960048036036020811015608457600080fd5b810190808035906020019092919050505060b9565b604051808215151515815260200191505060405180910390f35b60005481565b6000816000819055507f5ee7539fbb38ebe5783b7feb7c93f87d90b53ad26880d40d285840762f3d8a68826040518082815260200191505060405180910390a191905056fea165627a7a723058209e523e83daa9ccc54cfda2126806b66c08222a14408c1fc8e7955c65325faf240029",
  "source": "pragma solidity ^0.5.0;\n\n\ncontract Foo {\n    \n    uint public x;\n\n    event NewX(uint newX);\n\n    constructor(uint _x)\n        public\n    {\n        x = _x;\n        emit NewX(_x);\n    }\n\n    function setX(uint _x)\n        external\n        returns (bool)\n    {\n        x = _x;\n        emit NewX(_x);\n    }\n}",
  "sourcePath": "/home/aznagy/work/ewf/demo-workshop-february/contracts/Foo.sol",
  "compiler": {
    "name": "solc",
    "version": "0.5.4+commit.9549d8ff.Emscripten.clang"
  },
  "schemaVersion": "3.0.2",
  "updatedAt": "2019-02-28T11:07:06.650Z",
  "devdoc": {
    "methods": {}
  },
  "userdoc": {
    "methods": {}
  }
}